:020000040000FA
:02000000A22834
:040002000034003492
:08000800A3000308A4003D223F
:1000100024088300230809008207463469346E34BB
:10002000693473346834653464342E3420344F3486
:100030007034653472346134743469346F346E34BE
:100040002034543469346D3465343A342034003407
:1000500082072034733465346334733420340034BD
:1000600082074E3475346D34623465347234203412
:100070006F346634203462346134723472346534DF
:100080006C3473343A34203400348207543461348D
:100090006C346C34203442346134723472346534DC
:1000A0006C3473343A342034003482075334683467
:1000B0006F347234743420344234613472347234A4
:1000C00065346C3473343A34203400348207783425
:1000D0003D3400348207203463346D343A342034A4
:1000E00000348207543461346C346C342C34203442
:1000F00000348207533468346F34723474342C34CF
:10010000203400348207463475346C346C34003447
:1001100082074D346934643464346C34653400349B
:10012000820745346D347034743479340034820776
:1001300041346C346C34203464346F346E34653440
:100140002E3400348316FF308600FF3085000730E0
:100150009F00003087000030880083128701BE2195
:100160008316473081008601831286018316FF3093
:100170008600831298308B006A308E0067308F00C3
:1001800031309000053087000C1CC4280C10A10AE7
:100190000319A20A6A308E0703188F0A67308F0787
:1001A000A11BD328C4283330EC213230EC21283075
:1001B000EC210C30EC210630EC210130EC2122083E
:1001C000B1002108B0000310B10CB00CB10CB00CA0
:1001D000B10CB00C0330B007B1011722A901030123
:1001E00029080C20003A0319F828FB21A90AF02855
:1001F0003408FB213308FB213208FB21A90103014C
:1002000029082820003A03190829FB21A90A0029F6
:10021000BE210130EC213708B0001722A9010301EB
:1002200029083020003A03191829FB21A90A1029AE
:100230003308FB213208FB21BE210130EC213608B6
:10024000B0001722A901030129084520003A03192B
:100250002C29FB21A90A24293308FB213208FB2180
:10026000BE210130EC213708B0003608B002172259
:10027000A901030129085520003A03194229FB214D
:10028000A90A3A293308FB213208FB21BE21373065
:100290008400840A0130B500840A0130EC21000892
:1002A000B000840A0008B1000F30B1051722A9017F
:1002B000030129086620003A03196129FB21A90AD4
:1002C00059293408FB213308FB213208FB21A901FD
:1002D000030129086A20003A03197129FB21A90AA0
:1002E0006929001E7E29A901030129087120003A0D
:1002F00003197D29FB21A90A75297F29A901030179
:1003000029087920003A03198829FB21A90A8029A4
:10031000001BA229801E9729A90103012908882012
:10032000003A03199629FB21A90A8E299A29A901C5
:10033000030129089020003A0319A129FB21A90AE9
:100340009929A329A901030129088220003A031948
:10035000AC29FB21A90AA429BE21370835020319BB
:10036000B329B50A4C29A901030129089720003AAD
:100370000319BD29FB21A90AB529BD29861CBE295F
:1003800008008B108313B70A37308400370D8407B9
:100390002208B0002108B1000310B00CB10CB00C61
:1003A000B10CB00C310C80000130840A8001B00126
:1003B000B0158403800C840A03188007800C840322
:1003C000800CB00BDB29840A05080F39800E8004ED
:1003D0000518B60A080008000811A500F0398800C1
:1003E00088150C228811250EF039880088150C22FA
:1003F00088110C2208000815A6002608F039043ED2
:10040000880088150C228811260EF039043E8800D9
:1004100088150C22881108004E30A7001430A8005F
:10042000A70B132AA80B102A152A00000800310870
:10043000F13E3107B40034073407FD3EB300300EFF
:100440000F39B307B3073107FB3CB200B207B2075D
:10045000B20730080F39B2070A30B207B303031CE2
:100460002D2AB307B403031C312AB407031C352A11
:100470003030B404B304B20408008B18C1210B1847
:04048000EB21080064
:02400E00323F3F
:00000001FF
