:020000040000FA
:0200000088284E
:040002000034003492
:08000800A3000308A400AF22CD
:1000100024088300230809008207503472346534B1
:100020007334733420343134203474346F342034D6
:10003000733474346134723474342E34003482076F
:10004000523475346E34203443346F346D3470342C
:100050006C346534743465342E340034820754347F
:1000600069346D3465343A34203400348207733493
:10007000653463347334003482074234613472343B
:10008000723465346C3473343A342034003482076B
:10009000543461346C346C343A3420340034820784
:1000A000533468346F34723474343A342034003446
:1000B00082070034820763346D343A3420340034CC
:1000C000820754342C3420340034820753342C34C7
:1000D000203400348207463475346C346C34003478
:1000E0008207483461346C34663400348207453406
:1000F0006D347034743479340034820741346C3494
:100100006C34203464346F346E3465342E340034EF
:100110008316FF308500FF30860007309F000030D7
:1001200087000030880083128B138701B701B80164
:10013000A101A20133305E2232305E2228305E22DD
:100140000C305E2206305E2201305E22A9010301DE
:1001500029080C20003A0319B0286D22A90AA82802
:10016000E421831607308100831200308B006A304F
:100170008E0067308F0031309000B5140530870055
:10018000380888000C1CC228E721851DC9283510B5
:10019000CC28351C0522C228B51CC228851E3B224E
:1001A000C2281010FD216430A0000022A00BD52829
:1001B000870107170716FD215730A0000022A00B6A
:1001C000DE280F308700FD210130B1000130A00092
:1001D0000022A00BE828B10BE628870133305E220D
:1001E00032305E2228305E220C305E2206305E22E3
:1001F00001305E220130A901030129081F20003AC5
:10020000031905296D22A90AFD28E42101305E2287
:100210002208B1002108B0000310B10CB00CB10CE1
:10022000B00CB10CB00C0630B0070330B007003092
:10023000B007B1018922A901030129082E20003A43
:10024000031925296D22A90A1D2934086D223308B6
:100250006D2232086D22A901030129083620003AD7
:10026000031935296D22A90A2D29E42101305E22C6
:100270003808B0008922A901030129083C20003A6E
:10028000031945296D22A90A3D2933086D22320838
:100290006D22E42101305E223708B0008922A901D5
:1002A000030129084720003A031959296D22A90A98
:1002B000512933086D2232086D22E42101305E227B
:1002C0003808B0003708B0028922A90103012908C3
:1002D0004F20003A03196F296D22A90A67293308B4
:1002E0006D2232086D22E421B8080319D52938306F
:1002F0008400840A3808B60001305E22840A0008AF
:10030000B000840A0008B1000F30B105892234081A
:100310006D2233086D2232086D22A90103012908DC
:100320005A20003A031997296D22A90A8F29001E25
:10033000A429A901030129086020003A0319A3296F
:100340006D22A90A9B298B1BA9010301290865209D
:10035000003A0319AE296D22A90AA629001BC82953
:10036000801EBD29A901030129087020003A031944
:10037000BC296D22A90AB429D229A901030129089F
:100380007620003A0319C7296D22A90ABF29D2296C
:10039000A901030129086A20003A0319D2296D2214
:1003A000A90ACA29E421B60B7C2901305E22A901E1
:1003B000030129087D20003A0319E1296D22A90AC9
:1003C000D929E4216300E329861CE42908000C10E4
:1003D000A10A0319A20A6A308E0703188F0A673030
:1003E0008F072108880000302206031D0800D1284D
:1003F00003303806031D0800D1280B1181010800C5
:100400000B1D002AFD290B11080035148313B80AAF
:1004100038308400380D8407380888002208B0007E
:100420002108B1000310B00CB10CB00CB10CB00C31
:10043000310C80000630840A8001B001B0158403BD
:10044000800C840A03188007800C8403800CB00B96
:10045000212A0A308002031C2F2A840A312A840AA6
:1004600080030F30800505080F39B400340E800476
:100470000518B70A0800B5101010870107170716EE
:10048000FD215730A0000022A00B432A0530870031
:100490001A30A00010140C1C4B2AE721A00B4B2A89
:1004A000101010308700FD215A30A0000022A00B50
:1004B000562A0B1605308700101408000811A500F5
:1004C000F039880088157E228811250EF0398800C1
:1004D00088157E2288117E2208000815A6002608AD
:1004E000F039043E880088157E228811260EF039E6
:1004F000043E880088157E22881108004E30A7002F
:100500001430A800A70B852AA80B822A872A00008E
:1005100008003108F13E3107B40034073407FD3ECE
:10052000B300300E0F39B307B3073107FB3CB200FD
:10053000B207B207B20730080F39B2070A30B20764
:10054000B303031C9F2AB307B403031CA32AB407F5
:10055000031CA72A3030B404B304B2040800080016
:02400E00323F3F
:00000001FF
